{
  "transactions": [
    {
      "hash": "0x47c51a2e612c4801a8f3fe317cf33dbb72de50f9dda69122f40caa3381af2cd1",
      "transactionType": "CALL",
      "contractName": null,
      "contractAddress": "0x779877a7b0d9e8603169ddbd7836e478b4624789",
      "function": "transferAndCall(address,uint256,bytes)",
      "arguments": [
        "0x9DdfaCa8183c41ad55329BdeeD9F6A8d53168B1B",
        "3000000000000000000",
        "0x74f5a4c24e47f3e6dfe152d142a3485adfae11b2696658c3599d21319d202a4a"
      ],
      "transaction": {
        "from": "0xb31baace6aeffb88f0e5164133324502d3064b8f",
        "to": "0x779877a7b0d9e8603169ddbd7836e478b4624789",
        "gas": "0x1c1ff",
        "value": "0x0",
        "input": "0x4000aea00000000000000000000000009ddfaca8183c41ad55329bdeed9f6a8d53168b1b00000000000000000000000000000000000000000000000029a2241af62c00000000000000000000000000000000000000000000000000000000000000000060000000000000000000000000000000000000000000000000000000000000002074f5a4c24e47f3e6dfe152d142a3485adfae11b2696658c3599d21319d202a4a",
        "nonce": "0x1",
        "chainId": "0xaa36a7"
      },
      "additionalContracts": [],
      "isFixedGasLimit": false
    }
  ],
  "receipts": [
    {
      "status": "0x1",
      "cumulativeGasUsed": "0x75973c",
      "logs": [
        {
          "address": "0x779877a7b0d9e8603169ddbd7836e478b4624789",
          "topics": [
            "0xddf252ad1be2c89b69c2b068fc378daa952ba7f163c4a11628f55a4df523b3ef",
            "0x000000000000000000000000b31baace6aeffb88f0e5164133324502d3064b8f",
            "0x0000000000000000000000009ddfaca8183c41ad55329bdeed9f6a8d53168b1b"
          ],
          "data": "0x00000000000000000000000000000000000000000000000029a2241af62c0000",
          "blockHash": "0xb05970ffae6bccc69a6f7ab7f8553e9a7391157a97845c9ea25940967d0c0fc0",
          "blockNumber": "0x7714f9",
          "transactionHash": "0x47c51a2e612c4801a8f3fe317cf33dbb72de50f9dda69122f40caa3381af2cd1",
          "transactionIndex": "0x73",
          "logIndex": "0xbb",
          "removed": false
        },
        {
          "address": "0x779877a7b0d9e8603169ddbd7836e478b4624789",
          "topics": [
            "0xe19260aff97b920c7df27010903aeb9c8d2be5d310a2c67824cf3f15396e4c16",
            "0x000000000000000000000000b31baace6aeffb88f0e5164133324502d3064b8f",
            "0x0000000000000000000000009ddfaca8183c41ad55329bdeed9f6a8d53168b1b"
          ],
          "data": "0x00000000000000000000000000000000000000000000000029a2241af62c00000000000000000000000000000000000000000000000000000000000000000040000000000000000000000000000000000000000000000000000000000000002074f5a4c24e47f3e6dfe152d142a3485adfae11b2696658c3599d21319d202a4a",
          "blockHash": "0xb05970ffae6bccc69a6f7ab7f8553e9a7391157a97845c9ea25940967d0c0fc0",
          "blockNumber": "0x7714f9",
          "transactionHash": "0x47c51a2e612c4801a8f3fe317cf33dbb72de50f9dda69122f40caa3381af2cd1",
          "transactionIndex": "0x73",
          "logIndex": "0xbc",
          "removed": false
        },
        {
          "address": "0x9ddfaca8183c41ad55329bdeed9f6a8d53168b1b",
          "topics": [
            "0x1ced9348ff549fceab2ac57cd3a9de38edaaab274b725ee82c23e8fc8c4eec7a",
            "0x74f5a4c24e47f3e6dfe152d142a3485adfae11b2696658c3599d21319d202a4a"
          ],
          "data": "0x000000000000000000000000000000000000000000000000000000000000000000000000000000000000000000000000000000000000000029a2241af62c0000",
          "blockHash": "0xb05970ffae6bccc69a6f7ab7f8553e9a7391157a97845c9ea25940967d0c0fc0",
          "blockNumber": "0x7714f9",
          "transactionHash": "0x47c51a2e612c4801a8f3fe317cf33dbb72de50f9dda69122f40caa3381af2cd1",
          "transactionIndex": "0x73",
          "logIndex": "0xbd",
          "removed": false
        }
      ],
      "logsBloom": "0x000000040000000000000000000000000000000000200000000000000200000000000000000000000000000000000000000000a0000000000000000000000000000000000000000000000008000000000010000000000400000020000020000008000000000000000000000000000000000000000000000000000010000040000000000000200000000000010000800000000020000000000000000000000000000000000000000000000000010000000000000000000000000004000000000000000002000000000000000000000000000000000000000100008000000000000010000000000000800000000000000000000000000000000000000000000000",
      "type": "0x2",
      "transactionHash": "0x47c51a2e612c4801a8f3fe317cf33dbb72de50f9dda69122f40caa3381af2cd1",
      "transactionIndex": "0x73",
      "blockHash": "0xb05970ffae6bccc69a6f7ab7f8553e9a7391157a97845c9ea25940967d0c0fc0",
      "blockNumber": "0x7714f9",
      "gasUsed": "0x133b1",
      "effectiveGasPrice": "0xd327deab8",
      "from": "0xb31baace6aeffb88f0e5164133324502d3064b8f",
      "to": "0x779877a7b0d9e8603169ddbd7836e478b4624789",
      "contractAddress": null
    }
  ],
  "libraries": [],
  "pending": [],
  "returns": {},
  "timestamp": 1740753745,
  "chain": 11155111,
  "commit": "c47dbf2"
}